:020000040800F2
:10000000005000200D1100086D1100086D1100084E
:100010006D1100086D1100086D110008000000004E
:100020000000000000000000000000006D1100084A
:100030006D110008000000006D110008EF37000886
:100040006D1100086D1100086D1100086D11000898
:100050006D1100086D110008DD380008E338000854
:10006000E9380008EF380008F53800086D1100087D
:100070006D1100086D1100086D1100086D11000868
:100080006D1100086D1100086D1100086D11000858
:100090006D1100086D1100086D110008FB38000893
:1000A0006D110008DD3500086D110008F1350008FC
:1000B000F5350008093600081D360008B14D000866
:1000C000BD4D0008C94D0008D54D00086D11000850
:1000D0006D110008D9410008F14100080D420008E7
:1000E000113900086D1100086D11000800000000B2
:1000F0000000000000000000000000000000000000
:0C01000000000000000000005FF808F1A3
:1001100081F0004102E000BF83F0004330B54FEAB8
:1001200041044FEA430594EA050F08BF90EA020F25
:100130001FBF54EA000C55EA020C7FEA645C7FEAB8
:10014000655C00F0E2804FEA5454D4EB5555B8BFDB
:100150006D420CDD2C4480EA020281EA030382EA4C
:10016000000083EA010180EA020281EA0303362DDE
:1001700088BF30BD11F0004F4FEA01314FF4801CB1
:100180004CEA113102D0404261EB410113F0004FC3
:100190004FEA03334CEA133302D0524263EB43037A
:1001A00094EA050F00F0A780A4F10104D5F1200E18
:1001B0000DDB02FA0EFC22FA05F2801841F1000173
:1001C00003FA0EF2801843FA05F359410EE0A5F147
:1001D00020050EF1200E012A03FA0EFC28BF4CF078
:1001E000020C43FA05F3C01851EBE37101F000452E
:1001F00007D54FF0000EDCF1000C7EEB00006EEB3B
:100200000101B1F5801F1BD3B1F5001F0CD34908C4
:100210005FEA30004FEA3C0C04F101044FEA44521B
:1002200012F5800F80F09A80BCF1004F08BF5FEAA2
:10023000500C50F1000041EB045141EA050130BD82
:100240005FEA4C0C404141EB0101013C28BFB1F594
:10025000801FE9D291F0000F04BF01460020B1FADF
:1002600081F308BF2033A3F10B03B3F120020CDAB2
:100270000C3208DD02F1140CC2F10C0201FA0CF090
:1002800021FA02F10CE002F11402D8BFC2F1200CF5
:1002900001FA02F120FA0CFCDCBF41EA0C019040AB
:1002A000E41AA2BF01EB0451294330BD6FEA0404F4
:1002B0001F3C1CDA0C340EDC04F11404C4F12002DF
:1002C00020FA04F001FA02F340EA030021FA04F3F1
:1002D00045EA030130BDC4F10C04C4F1200220FA48
:1002E00002F001FA04F340EA0300294630BD21FA86
:1002F00004F0294630BD94F0000F83F4801306BF4C
:1003000081F480110134013D4EE77FEA645C18BF3F
:100310007FEA655C29D094EA050F08BF90EA020FD6
:1003200005D054EA000C04BF1946104630BD91EACE
:10033000030F1EBF0021002030BD5FEA545C05D1D1
:100340004000494128BF41F0004130BD14F5800410
:100350003CBF01F5801130BD01F0004545F0FE4184
:1003600041F470014FF0000030BD7FEA645C1ABFB9
:10037000194610467FEA655C1CBF0B46024650EAF0
:10038000013406BF52EA033591EA030F41F400211C
:1003900030BD00BF90F0000F04BF0021704730B5A2
:1003A0004FF4806404F132044FF000054FF0000177
:1003B00050E700BF90F0000F04BF0021704730B538
:1003C0004FF4806404F1320410F0004548BF40420D
:1003D0004FF000013EE700BF42004FEAE2014FEA62
:1003E00031014FEA02701FBF12F07F4393F07F4F3D
:1003F00081F06051704732F07F4208BF704793F040
:100400007F4F04BF41F40021704730B54FF4607452
:1004100001F0004521F000411CE700BF50EA010255
:1004200008BF704730B54FF000050AE050EA0102FE
:1004300008BF704730B511F0004502D5404261EB6E
:1004400041014FF4806404F132045FEA915C3FF4AF
:10045000D8AE4FF003025FEADC0C18BF03325FEA4C
:10046000DC0C18BF033202EBDC02C2F1200300FAFD
:1004700003FC20FA02F001FA03FE40EA0E0021FA22
:1004800002F11444BDE600BF70B54FF0FF0C4CF410
:10049000E06C1CEA11541DBF1CEA135594EA0C0FC2
:1004A00095EA0C0F00F0DEF82C4481EA030621EAFD
:1004B0004C5123EA4C5350EA013518BF52EA033538
:1004C00041F4801143F4801338D0A0FB02CE4FF0EA
:1004D0000005E1FB02E506F00042E0FB03E54FF01A
:1004E0000006E1FB03569CF0000F18BF4EF0010E12
:1004F000A4F1FF04B6F5007F64F5407404D25FEA0E
:100500004E0E6D4146EB060642EAC62141EA5551C0
:100510004FEAC52040EA5E504FEACE2EB4F1FD0C02
:1005200088BFBCF5E06F1ED8BEF1004F08BF5FEA80
:10053000500E50F1000041EB045170BD06F0004632
:1005400046EA010140EA020081EA0301B4EB5C04DF
:10055000C2BFD4EB0C0541EA045170BD41F48011D7
:100560004FF0000E013C00F3AB8014F1360FDEBFFC
:10057000002001F0004170BDC4F10004203C35DAD8
:100580000C341BDC04F11404C4F1200500FA05F35B
:1005900020FA04F001FA05F240EA020001F00042FC
:1005A00021F0004110EBD37021FA04F642EB060172
:1005B0005EEA430E08BF20EAD37070BDC4F10C049C
:1005C000C4F1200500FA04F320FA05F001FA04F260
:1005D00040EA020001F0004110EBD37041F100014C
:1005E0005EEA430E08BF20EAD37070BDC4F1200557
:1005F00000FA05F24EEA020E20FA04F301FA05F2BF
:1006000043EA020321FA04F001F0004121FA04F266
:1006100020EA020000EBD3705EEA430E08BF20EA36
:10062000D37070BD94F0000F0FD101F00046400070
:1006300041EB010111F4801F08BF013CF7D041EAF2
:10064000060195F0000F18BF704703F000465200F6
:1006500043EB030313F4801F08BF013DF7D043EAC7
:100660000603704794EA0C0F0CEA135518BF95EA7D
:100670000C0F0CD050EA410618BF52EA4306D1D104
:1006800081EA030101F000414FF0000070BD50EA23
:10069000410606BF1046194652EA430619D094EAAD
:1006A0000C0F02D150EA013613D195EA0C0F05D197
:1006B00052EA03361CBF104619460AD181EA0301EB
:1006C00001F0004141F0FE4141F470014FF00000A3
:1006D00070BD41F0FE4141F4780170BD70B54FF03E
:1006E000FF0C4CF4E06C1CEA11541DBF1CEA1355BE
:1006F00094EA0C0F95EA0C0F00F0A7F8A4EB0504A0
:1007000081EA030E52EA03354FEA013100F0888096
:100710004FEA03334FF0805545EA131343EA12635F
:100720004FEA022245EA111545EA10654FEA002614
:100730000EF000419D4208BF964244F1FD0404F5CD
:10074000407402D25B084FEA3202B61A65EB030529
:100750005B084FEA32024FF480104FF4002CB6EBE6
:10076000020E75EB030E22BFB61A754640EA0C0066
:100770005B084FEA3202B6EB020E75EB030E22BFA6
:10078000B61A754640EA5C005B084FEA3202B6EBE7
:10079000020E75EB030E22BFB61A754640EA9C00A6
:1007A0005B084FEA3202B6EB020E75EB030E22BF76
:1007B000B61A754640EADC0055EA060E18D04FEA34
:1007C000051545EA16754FEA06164FEAC30343EAD4
:1007D00052734FEAC2025FEA1C1CC0D111F4801FA1
:1007E0000BD141EA00014FF000004FF0004CB6E79A
:1007F00011F4801F04BF01430020B4F1FD0C88BF39
:10080000BCF5E06F3FF6AFAEB5EB030C04BFB6EB43
:10081000020C5FEA500C50F1000041EB045170BD36
:100820000EF0004E4EEA113114EB5C04C2BFD4EB63
:100830000C0541EA045170BD41F480114FF0000EE7
:10084000013C90E645EA060E8DE60CEA135594EA63
:100850000C0F08BF95EA0C0F3FF43BAF94EA0C0F66
:100860000AD150EA01347FF434AF95EA0C0F7FF4DB
:1008700025AF104619462CE795EA0C0F06D152EA2F
:1008800003353FF4FDAE1046194622E750EA410613
:1008900018BF52EA43067FF4C5AE50EA41047FF424
:1008A0000DAF52EA43057FF4EBAE12E74FF0FF3C89
:1008B00006E000BF4FF0010C02E000BF4FF0010C5A
:1008C0004DF804CD4FEA410C7FEA6C5C4FEA430CD3
:1008D00018BF7FEA6C5C1BD001B050EA410C0CBF22
:1008E00052EA430C91EA030F02BF90EA020F002084
:1008F000704710F1000F91EA030F58BF994208BFEB
:1009000090422CBFD8176FEAE37040F001007047A7
:100910004FEA410C7FEA6C5C02D150EA013C07D1FE
:100920004FEA430C7FEA6C5CD6D152EA033CD3D049
:100930005DF8040B704700BF8446104662468C4643
:100940001946634600E000BF01B5FFF7B7FF002876
:1009500048BF10F1000F01BD4DF808EDFFF7F4FF9F
:100960000CBF012000205DF808FB00BF4DF808ED2A
:10097000FFF7EAFF34BF012000205DF808FB00BF4D
:100980004DF808EDFFF7E0FF94BF012000205DF86F
:1009900008FB00BF4DF808EDFFF7CEFF94BF012024
:1009A00000205DF808FB00BF4DF808EDFFF7C4FF1D
:1009B00034BF012000205DF808FB00BF4FEA410270
:1009C000B2F1E04324BFB3F5001CDCF1FE5C0DD9AD
:1009D00001F0004C4FEAC0024CEA5070B2F1004FF7
:1009E00040EB830008BF20F00100704711F0804FFA
:1009F00021D113F13872BCBF01F00040704741F4BF
:100A000080114FEA5252C2F11802C2F1200C10FAC2
:100A10000CF320FA02F018BF40F001004FEAC123A6
:100A20004FEAD32303FA0CFC40EA0C0023FA02F34A
:100A30004FEA4303CCE77FEA625307D150EA013320
:100A40001EBF4FF0FE4040F44000704701F00040F0
:100A500040F0FE4040F40000704700BF80F00040CE
:100A600002E000BF81F0004142001FBF5FEA410386
:100A700092EA030F7FEA226C7FEA236C6AD04FEA86
:100A80001262D2EB1363C1BFD218414048404140CB
:100A9000B8BF5B42192B88BF704710F0004F40F47D
:100AA000000020F07F4018BF404211F0004F41F499
:100AB000000121F07F4118BF494292EA030F3FD065
:100AC000A2F1010241FA03FC10EB0C00C3F1200378
:100AD00001FA03F100F0004302D5494260EB400007
:100AE000B0F5000F13D3B0F1807F06D340084FEA72
:100AF000310102F10102FE2A51D2B1F1004F40EB67
:100B0000C25008BF20F0010040EA030070474900CE
:100B100040EB0000013A28BFB0F5000FEDD2B0FA6B
:100B200080FCACF1080CB2EB0C0200FA0CF0AABF8E
:100B300000EBC25052421843BCBFD040184370472C
:100B400092F0000F81F4000106BF80F40000013232
:100B5000013BB5E74FEA41037FEA226C18BF7FEA09
:100B6000236C21D092EA030F04D092F0000F08BF4B
:100B70000846704790EA010F1CBF0020704712F032
:100B80007F4F04D1400028BF40F00040704712F171
:100B900000723CBF00F50000704700F0004343F0D6
:100BA000FE4040F4000070477FEA226216BF08460C
:100BB0007FEA23630146420206BF5FEA412390EACF
:100BC000010F40F4800070474FF0000304E000BFC5
:100BD00010F0004348BF40425FEA000C08BF704776
:100BE00043F0964301464FF000001CE050EA01023A
:100BF00008BF70474FF000030AE000BF50EA01024F
:100C000008BF704711F0004302D5404261EB41013B
:100C10005FEA010C02BF84460146002043F0B64360
:100C200008BFA3F18053A3F50003BCFA8CF2083A85
:100C3000A3EBC25310DB01FA02FC634400FA02FC8E
:100C4000C2F12002BCF1004F20FA02F243EB020095
:100C500008BF20F00100704702F1200201FA02FCF7
:100C6000C2F1200250EA4C0021FA02F243EB0200EA
:100C700008BF20EADC7070474FF0FF0C1CEAD0522E
:100C80001EBF1CEAD15392EA0C0F93EA0C0F6FD0EF
:100C90001A4480EA010C400218BF5FEA41211ED0CD
:100CA0004FF0006343EA501043EA5111A0FB0131B9
:100CB0000CF00040B1F5000F3EBF490041EAD3718E
:100CC0005B0040EA010062F17F02FD2A1DD8B3F10A
:100CD000004F40EBC25008BF20F00100704790F079
:100CE000000F0CF0004C08BF49024CEA502040EACB
:100CF00051207F3AC2BFD2F1FF0340EAC250704791
:100D000040F400004FF00003013A5DDC12F1190FCE
:100D1000DCBF00F000407047C2F10002410021FA40
:100D200002F1C2F1200200FA02FC5FEA310040F158
:100D3000000053EA4C0308BF20EADC70704792F0D1
:100D4000000F00F0004C02BF400010F4000F013A09
:100D5000F9D040EA0C0093F0000F01F0004C02BF04
:100D6000490011F4000F013BF9D041EA0C018FE773
:100D70000CEAD15392EA0C0F18BF93EA0C0F0AD079
:100D800030F0004C18BF31F0004CD8D180EA01009F
:100D900000F00040704790F0000F17BF90F0004F38
:100DA000084691F0000F91F0004F14D092EA0C0F1A
:100DB00001D142020FD193EA0C0F03D14B0218BFAD
:100DC000084608D180EA010000F0004040F0FE40F3
:100DD00040F40000704740F0FE4040F4400070478F
:100DE0004FF0FF0C1CEAD0521EBF1CEAD15392EA0E
:100DF0000C0F93EA0C0F69D0A2EB030280EA010CFE
:100E000049024FEA402037D04FF0805343EA111196
:100E100043EA10130CF000408B4238BF5B0042F1F4
:100E20007D024FF4000C8B4224BF5B1A40EA0C0099
:100E3000B3EB510F24BFA3EB510340EA5C00B3EBCB
:100E4000910F24BFA3EB910340EA9C00B3EBD10FB9
:100E500024BFA3EBD10340EADC001B0118BF5FEA0B
:100E60001C1CE0D1FD2A3FF650AF8B4240EBC25034
:100E700008BF20F0010070470CF0004C4CEA5020F5
:100E80007F32C2BFD2F1FF0340EAC250704740F444
:100E900000004FF00003013A37E792F0000F00F036
:100EA000004C02BF400010F4000F013AF9D040EAB4
:100EB0000C0093F0000F01F0004C02BF490011F448
:100EC000000F013BF9D041EA0C0195E70CEAD15340
:100ED00092EA0C0F08D142027FF47DAF93EA0C0F27
:100EE0007FF470AF084676E793EA0C0F04D14B020B
:100EF0003FF44CAF08466EE730F0004C18BF31F0BD
:100F0000004CCAD130F000427FF45CAF31F00043B6
:100F10007FF43CAF5FE700BF4FF0FF3C06E000BF4F
:100F20004FF0010C02E000BF4FF0010C4DF804CD72
:100F30004FEA40024FEA41037FEA226C18BF7FEA82
:100F4000236C11D001B052EA530C18BF90EA010F84
:100F500058BFB2EB030088BFC81738BF6FEAE17013
:100F600018BF40F0010070477FEA226C02D15FEAAF
:100F7000402C05D17FEA236CE4D15FEA412CE1D01B
:100F80005DF8040B704700BF844608466146FFE7E2
:100F90000FB5FFF7C9FF002848BF10F1000F0FBDC4
:100FA0004DF808EDFFF7F4FF0CBF012000205DF8BD
:100FB00008FB00BF4DF808EDFFF7EAFF34BF012042
:100FC00000205DF808FB00BF4DF808EDFFF7E0FFDB
:100FD00094BF012000205DF808FB00BF4DF808ED2C
:100FE000FFF7D2FF94BF012000205DF808FB00BF8F
:100FF0004DF808EDFFF7C8FF34BF012000205DF871
:1010000008FB00BF4FEA40024FEA41037FEA226C2F
:1010100002D15FEA402C08D17FEA236C02D15FEA5B
:10102000412C02D14FF0000070474FF00100704793
:101030004FEA4002B2F1FE4F0FD34FF09E03B3EBE5
:1010400012620DD94FEA002343F0004310F0004F25
:1010500023FA02F018BF404270474FF0000070477B
:1010600012F1610F01D1420205D110F0004008BF1A
:101070006FF0004070474FF00000704742000ED202
:10108000B2F1FE4F0BD34FF09E03B3EB126209D4C3
:101090004FEA002343F0004323FA02F070474FF079
:1010A0000000704712F1610F01D1420202D14FF0EE
:1010B000FF3070474FF00000704700BF034613F841
:1010C000012B002AFBD1181A0138704710B5054CC6
:1010D000237833B9044B13B10448AFF300800123E4
:1010E000237010BD800000200000000098700008F0
:1010F00008B5034B1BB103490348AFF3008008BD9B
:101100000000000084000020987000081148854607
:1011100072B6BFF34F8FBFF36F8F71B6002103E03C
:101120000D4B5B58435004310C480D4B42189A420A
:10113000F6D30C4A02E0002342F8043B0A4B9A42E1
:10114000F9D302F0A3FE62B661B605F021FF05F007
:10115000A8F87047005000208080000800000020A0
:1011600080000020800000204C060020FEE700BE2A
:1011700010B594B0142200210CA805F0ADFE142285
:1011800000210DEB020005F0A7FE1022002101A8AE
:1011900005F0A2FE02244FF480330122CDE9114371
:1011A000CDE90A234FF4E0130AA80E92139301F03D
:1011B000C5FA00B1FEE70F23CDE905344FF4806393
:1011C0000790CDE90830214605A801F079FC00B16F
:1011D000FEE7122301934FF40043CDE9033001A849
:1011E00001F02AFD00B1FEE714B010BD7047000009
:1011F00038B50E4B05461A784FF47A73B3FBF2F309
:101200000B4A1068B0FBF3F000F09CF8044658B9A4
:101210000F2D09D8024629464FF0FF3000F042F862
:101220002046044B1D6038BD0120FCE70000002073
:101230002400002004000020074A08B5136803209A
:1012400043F01003136000F01BF80020FFF7D0FFFD
:10125000FFF7CCFF002008BD00200240034A044BEA
:1012600011681B780B441360704700BF9C0000207E
:1012700000000020014B1868704700BF9C00002050
:1012800007490302CA6803F4E06322F4E06212042F
:10129000120C134343F0BF6343F40033CB60704739
:1012A00000ED00E0154B30B5DC68C4F30224C4F156
:1012B0000703251D042B28BF0423062D4FF0FF35FF
:1012C00094BF0024033C05FA03F321EA0303A5407D
:1012D00022EA0502A340002843EA0203ACBF00F162
:1012E0006040074A4FEA0313DBB2ABBF00F5614031
:1012F00000F00F0080F80033135430BD00ED00E023
:1013000014ED00E0002807DB01234109034A00F047
:101310001F00834042F82130704700BF00E100E029
:1013200000280CDB01220649430900F01F0082401F
:10133000203341F82320BFF34F8FBFF36F8F7047E7
:1013400000E100E00138B0F1807F0BD24FF0E023E4
:10135000F021054A586182F8231000200722986185
:101360001A6170470120704700ED00E0002808DB9B
:1013700001224309034900F01F008240603341F815
:101380002320704700E100E0704708B5FFF7FCFF3D
:1013900008BD704710B5044650B1437903F0FF0211
:1013A00013B90271FFF7F5FF01230020637110BD2F
:1013B0000120FCE790F821200346022A06D00422EF
:1013C00082630120002283F8202070470268C06BEE
:1013D000116821F00E011160116821F00101116006
:1013E00001211A6C01FA02F24260002083F82110F8
:1013F000E8E7000008B590F82130022B03D0042361
:101400008363012008BD03681A6822F00E021A6087
:101410001A6822F001021A60174A93421FD0143250
:1014200093421ED0143293421DD0143293421DD0E9
:10143000143293421DD01432934214BF4FF0807384
:101440004FF480130D4A5360012380F821300023AC
:1014500080F82030436B03B198470020D2E7012386
:10146000F0E71023EEE74FF48073EBE74FF480537F
:10147000E8E74FF48033E5E708000240000002404F
:1014800090F8210070470000044A08B551690142F4
:1014900002D0506102F00CFA08BD00BF0004014008
:1014A0002DE9F84606460F4691461D464FEA114A79
:1014B0003368BAF1010F0CBF5C699C6927EA040428
:1014C000A4B2B4FA84F46409A14501D0002025E057
:1014D0006A1CEED0FFF7CEFE089BC01AA84201D8C6
:1014E000002DE5D13368BAF1010F0CBF5B699B6930
:1014F00027EA03039BB2B3FA83F35B099945D7D17B
:10150000002320220120336386F83D2086F83E30F8
:10151000326C86F83C3042F020023264BDE8F88636
:101520007047000070B5044608B9012070BD90F8FE
:101530003D3003F0FF021BB980F83C20FFF7F0FFBD
:10154000242384F83D3023681A6822F001021A60CF
:101550001A6842F400421A601A6822F400421A60C3
:1015600001F04AFB3E4B65689D4294BF3D4B3E4BAC
:101570009842DAD93D4A2168B0FBF2F24B6823F079
:101580003F0313434B60431E35480E6A854226F0E5
:101590003F0639D8013232430A626A00B3FBF2F2E5
:1015A000531C40F6FC72C869134220F44F4020F0EF
:1015B000FF0045D104230343CB610A68D4E9073017
:1015C00022F0C002034313430B608A68D4E903038B
:1015D00022F40342034322F0FF0213438B60CA68E4
:1015E000D4E9053022F0FF0203431343CB600B68BC
:1015F000002043F001030B602023206484F83D3079
:10160000206384F83E0091E74FF4967042434FF414
:101610007A70B2FBF0F2013232430A62C869A26802
:1016200020F44F4020F0FF006AB119226A43B3FB57
:10163000F2F30133C3F30B0383B143F44043BAE73E
:10164000C3F30B03B7E705EB4502B3FBF2F201323C
:10165000C2F30B0313B143F40043ACE70123AAE741
:10166000A08601007F841E00FF083D0040420F005D
:10167000704710B5044698B12423026880F83D30C5
:10168000136823F001031360FFF7F2FF00202064CA
:1016900084F83C0084F83D00206384F83E0010BDCF
:1016A0000120FCE72DE9F04F044685B01F4688462F
:1016B0009246FFF7DFFD94F83D300546202B03D01E
:1016C000022005B0BDE8F08F0090192301222046CA
:1016D0004A49FFF7E5FE0028F2D194F83C30012B8F
:1016E000EED0012384F83C30236800261A68DFF826
:1016F0000CB1D20758BF1A6808F0FE085CBF42F070
:1017000001021A601A6822F400621A60242384F825
:101710003D303B4B2664E36222684FF001111368B1
:10172000204643F4807313603B4600220095FFF788
:10173000B7FE236838B11B680320DB0544BF4FF4B4
:1017400000732364BDE7C3F81080FFF793FD4FF0EB
:10175000A009054623685A695B69C2F34002C3F3D6
:10176000802394F83D10A02901D013431DD04FF0E1
:101770002009236884F83D905A6912F0020F1A6814
:1017800042F400721A6025D0002203925A69204662
:1017900003929B6901220393039B18491923009527
:1017A000FFF77EFE88B101208BE7FFF763FD401B4A
:1017B000B84200D80FB984F83D9023685A695B6934
:1017C000C2F34002C3F38023CBE784F83D9084F852
:1017D0003C0076E76FF4806259465A61204619232F
:1017E00001220095FFF75CFE0028DCD1013656454A
:1017F00092D384F83D9084F83C00D4E702001000B6
:101800000000FFFFF7B5002504460095019594F808
:101810003D500898202D02D0022003B0F0BD25686D
:101820002E68B60503D4082801D001281BD146F242
:10183000A817274E3668B6FBF7F619277E430196A0
:10184000019E013E0196019E56B92023266384F82D
:101850003D3084F83E60236C43F020032364DBE7D3
:10186000AE69B707ECD494F83C60012ED4D02E6852
:10187000F6075EBF2E6846F001062E602E6826F43D
:1018800000662E60212684F83D60102684F83E60B4
:10189000002626646385638DE06261642385236B83
:1018A00062620093009B112B05D1B0F52A0F02D084
:1018B000B0F12A4F03D12B6843F480732B600020D2
:1018C00084F83C006B6843F4E0636B60A5E700BFFD
:1018D0002400002037B5044690F83D0000F02800B1
:1018E000282830D100292CD0002A2AD094F83C0096
:1018F000012828D025682868C0075EBF286840F006
:1019000001002860286820F400602860292084F8FD
:101910003D00202084F83E00002020646285628D16
:10192000E36201906B6961620193AB6984F83C00EA
:101930000193019B6B68228543F4E0636B6003B005
:1019400030BD0120FBE70220F9E737B5044690F8E7
:101950003D0000F02800282830D100292CD0002A92
:101960002AD094F83C00012828D025682868C007B0
:101970005EBF286840F001002860286820F40060FD
:1019800028602A2084F83D00202084F83E000020B2
:1019900020646285628DE36201906B6961620193EC
:1019A000AB6984F83C000193019B6B68228543F48A
:1019B000E0636B6003B030BD0120FBE70220F9E774
:1019C00090F83D30202B14D1282380F83D30036857
:1019D00000201A68D2075EBF1A6842F001021A603E
:1019E0001A6842F480621A605A6842F440725A607F
:1019F00070470220704770477047704710B590F8E5
:101A00003D10026D0346C9B282B9C26C0168012A59
:101A1000826C05D1D2B20A61026D02321A6510BD24
:101A2000C2F307220A611A6D0132F7E7026D012A3B
:101A300003D1826C0168D2B2F4E7026D022A31D17F
:101A4000222905D101680A6842F480720A60EAE737
:101A5000428D92B272B121290AD1426A016812F80C
:101A6000010B08615A625A8D013A92B25A85D6E743
:101A70005B8DD4E7428D92B2002AD0D12129CED1FC
:101A800001684C6824F4E0644C600C6844F4007411
:101A90000C602021026380F83D1080F83E20FFF7A3
:101AA000ACFFBCE703685A69120644BF00221A6102
:101AB000B5E7704770470000002373B5406A019393
:101AC00090F83D20344BD4B246F2A8121B68B3FB09
:101AD000F2F32322534301930368019A02BB026C81
:101AE00042F020020264D0E90D1201BB002A32D17B
:101AF000196821F48061196042851A6822F0010298
:101B00001A6090F83D20602A2CD1202380F83D30C7
:101B1000002380F83E300364FFF7CCFF02B070BDB5
:101B2000019A013A01921A689205D6D4DBE70025A2
:101B30008D6232B91D6825F480651D6042854A6357
:101B4000DBE71E68956226F480661E6045854D635E
:101B500000215163D1E71D68916225F480651D6005
:101B60004185F5E704F02802282A0ED1196841F0D2
:101B700001011960196841F4806119600023036351
:101B800080F83D2003F00EF9C8E7202380F83D30AF
:101B9000002380F83E30F5E72400002010B590F8CF
:101BA0003D2090F83E300446102BD9B2D2B20368E3
:101BB00001D040290CD1222A0AD11A6822F40062ED
:101BC0001A6022685268120549D50022226307E094
:101BD00002F0280128293DD10022226384F83D101B
:101BE0005A6812F400625BD05A68606B22F400629B
:101BF0005A6090F82130012B3D4B37D04363FFF7FB
:101C0000F9FB50B12268606B136823F00103136085
:101C1000202384F83D30436B9847236C19071FBF7E
:101C20002268536823F4E063536094F83D30226CDB
:101C3000DBB252070DD5282B0BD12E4B2022E362AD
:101C400000232046236384F83D2084F83E3003F0CF
:101C50007EF810BD59680805B7D4602AB5D0202297
:101C600084F83D20002284F83E20AEE7A06B436359
:101C7000FFF7C0FB0028D0D023685A69510605D56C
:101C80001A69636A1A70636A013363622268A06B1F
:101C9000136823F001031360202384F83D30BAE772
:101CA00094F83D10602915D1202184F83D1022645C
:101CB0005A69520605D51A69636A1A70636A013354
:101CC000636222682046136823F001031360FFF764
:101CD000F1FEA2E75A69500605D51A69636A1A70BF
:101CE000636A01336362204603F05CF895E700BF46
:101CF000B91A00080000FFFFF0B5044603688FB072
:101D00005A68C66A90F83E0094F83D101028C5B293
:101D1000C9B202D0402D40F0E7829F69586910F0A7
:101D2000010F07D1B6F52A0F02D0B6F12A4F51D1D3
:101D30000FB0F0BD96054DD5E26AB2F52A0F0CD171
:101D40000122E26294F83E20402A11D1226D52B95C
:101D5000626C02F0FE021A61EAE7E26AB2F12A4F0F
:101D6000F0D10822EDE7626C42F00102D2B2F2E754
:101D70002269B2F5804F1AD194F83D20212A626C75
:101D800011D102F0FE021A61626B0AB1926A2AB99D
:101D9000A26B002ACCD0926A002AC9D05A6842F4B9
:101DA00000625A60C4E742F00102D2B2EBE7226D52
:101DB00032B9626CD21102F0060242F0F002CAE7B8
:101DC000226D012AB4D1626CD21102F0060242F0F7
:101DD000F102C0E7060703D5960501D5626CE4E77A
:101DE000860740F1F280960540F1EF8094F83E10AE
:101DF000E26A256B94F83D00C9B2222840F0DD80EC
:101E0000206D40B9402906D100905A6900929B6923
:101E10000093009B8CE7216D89B92069B0F5404F94
:101E20000DD101915A6901929A690192019A1A6839
:101E300042F480721A60236D0133236578E7618D67
:101E400089B251B902915A6902929A690292029A30
:101E50001A6842F400721A6019E0618D89B2012992
:101E600049D112F5803F1BD11A6822F480621A60B2
:101E70005A6812F400620CD01A6822F480621A6068
:101E8000002203925A6903929B690393039B0023E8
:101E9000D3E704925A6904929A690492049AD7E7A4
:101EA000082A1CD0202A1AD0122D0DD1012A16D1B1
:101EB0001A6822F480621A60002205925A6905921B
:101EC0009B690593059BE2E7102AF1D8874941FAFF
:101ED00002F2D207ECD41A6842F48062EBE71A6887
:101EE00022F480621A60002206925A6906929A6968
:101EF0000692069AACE7618D89B202293AD1102A7E
:101F000003D87B49D140CF0716D4196841F400614A
:101F100019600021079159690791996907910799FB
:101F2000196821F48061196059680E05AFD5202A1F
:101F300010D912F5803F10E0196841F480611960F2
:101F4000002108915969089199690891089959687F
:101F50000D059CD5072A02D8012A98D105E0A2F1E7
:101F60000801644ACA40D00791D55A6842F48052A9
:101F70005A608CE7196841F4806119605968090555
:101F800005D5202A16D8072A09D8012A0DD0002203
:101F900009925A6909929B690993099B77E7A2F113
:101FA0000801544ACA40D207F1D55A6842F4805217
:101FB0005A60ECE712F5803FE8E700220A925A697E
:101FC0000A929B690A930A9BB2E67F0740F19480CC
:101FD0005E6836053FF5ACAE070600F004063ED558
:101FE00050053CD5002E3DD194F83D20258D94F828
:101FF0003E10D2B2E06AC9B2C5B9212A18D1082868
:1020000058D0202856D010F5803F53D05A6822F47B
:10201000E0625A6011232363002384F83E302023BA
:10202000204684F83D30FFF7E6FC81E6212A05D002
:1020300040297FF47DAE222A7FF47AAE628D92B27F
:102040001AB95A6822F48062ABE694F83E20402A1E
:1020500016D120460FB0BDE8F040FFF7CFBC002EF0
:102060003FF466AE97057FF563AE212939D1E16A69
:1020700094F83D20212A7FF45BAE628D92B24AB182
:10208000626A12F8011B19616262638D013B9BB2A7
:1020900063854DE608290DD020290BD011F5803F2E
:1020A00008D0596821F4E06159601123236384F852
:1020B0003E20B4E75A68204622F4E0625A601A686B
:1020C00042F400721A6000232022236384F83D202A
:1020D00094F83E2084F83E30402AA4D1FFF78DFCCE
:1020E00026E6402D7FF424AEB3E700BFEBFFFEFFF2
:1020F000140001000101000159680E053FF518AEFA
:10210000450600F0040140F18680500540F18380CF
:10211000002940F0838094F83D20222A7FF408AE05
:10212000E06A628D92B2032A14D91A69636A1A703E
:10213000636A01336362638D013B9BB26385638D88
:102140009BB2032B7FF4F4AD2268536823F48063C1
:102150005360EDE5E56A022D3FF473AF012A3FF6C7
:1021600070AF0B9146F2A811784A1268B2FBF1F2F7
:1021700002EB82020B920B9A013A0B920B99D1B9A6
:10218000226C204642F0200222645A6822F4E06267
:102190005A601A69636A1A70636A01336362638DF5
:1021A000013B9BB26385202384F83D3084F83E10C8
:1021B00002F0F8FDBCE51A6812F40072DBD1196870
:1021C00021F480611960596821F4E061596019694E
:1021D000636A1970636A01336362638D013B9BB26A
:1021E0006385202384F83D3094F83E3084F83E2007
:1021F000402B04D122632046FFF75BFC98E50828BA
:1022000001D0202801D1002300E0122320462363BF
:10221000FFF7F2FB8CE500293FF48AAD92057FF5CC
:1022200087ADE26A608D616A80B2042809D15A687C
:1022300022F480625A601B690B70636A0133636227
:1022400023E7608D80B203280CD15868042A20F45B
:1022500080605860EFD0022AEDD01A6822F48062C4
:102260001A60E8E7608D80B20228E4D1042A33D0F6
:1022700007D8012A07D0022A2ED0186840F400702F
:1022800004E0102AF9D1186820F4806018601B69F6
:102290000B70616A4B1C6362638D013B9BB263856B
:1022A00023681B694B70636A216801336362638D25
:1022B000013B9BB263854B6823F440734B60202342
:1022C00084F83D3094F83E30402B4FF0000384F802
:1022D0003E3005D123638EE7186840F48060D5E76F
:1022E000082A90D0202A8DE7206C10B30025586969
:1022F00087072DD596052BD5226C02B19D6994F8E0
:102300003D2002F02802282A16D15A682F0622F40E
:1023100080625A604FF0000385F00401204654BFEC
:10232000A289228BC1F3800184F83C3002F0DBFCEF
:10233000FEE49D695869DBE700220C9259690C9113
:102340009B6984F83C200C930C9BF1E42400002052
:10235000C60640F1C280950540F1BF8094F83D501B
:102360005A68EDB222F4E0625A6000220D925A6976
:102370000D921A6842F001021A600D9A1A6822F44E
:1023800080621A605A68100520D505F0F702222AEB
:102390003DD1A06B0268526892B26285628D92B2A2
:1023A0001AB1226C42F0040222645A6822F40062DC
:1023B0005A60FFF765F8012808D0A06B824B436391
:1023C000FFF718F810B1A06B436B9847638D9BB271
:1023D000002B3CD1236C002B56D12A2D74D12363C2
:1023E0002823204684F83D3002F0C6FC94F83D30A6
:1023F000282B5AD1754B2022E36200232046236309
:1024000084F83D2084F83E3002F0A1FC90E4606B3B
:102410000268526892B26285628D92B21AB1226CE1
:1024200042F0040222645A6822F400625A60FFF704
:1024300027F8012808D0606B634B4363FEF7DAFF8F
:1024400010B1606B436B9847638D9BB2D3B1236827
:102450005A6951071ED423685A69520609D51A6968
:10246000636A1A70636A01336362638D013B9BB2D6
:102470006385638D9BB2002BACD0236C43F00403C7
:102480002364A7E7236CFBB120460FB0BDE8F04002
:10249000FFF784BB1A69636A1A70636A0133636267
:1024A000638D013B9BB26385D5E7236B222B7FF4C1
:1024B0003FAC00232022236384F83D2084F83E3083
:1024C000204602F059FC33E494F83D30282B91D09B
:1024D000236B222BEDD0222DE9E701F0F701212912
:1024E00000F0040536D1070628D5560526D545BB8C
:1024F00094F83D00628DC0B292B2002A3FF418AC4D
:10250000626A12F8015B1D616262628D013A92B2E9
:102510006285628D92B2002A7FF40AAC29287FF48A
:1025200007AC5A68204622F480625A60282321634F
:1025300084F83D3002F032FCFFF7FABB002D3FF487
:10254000F7AB95057FF5F4AB628D92B2002A3FF4AC
:10255000EFAB95E5400627D5510525D53DBB94F851
:102560003D20618DD2B289B200293FF4E1AB1969F7
:10257000636A1970636A01336362638D013B9BB2C6
:102580006385638D9BB2002B7FF4D2AB2A2A7FF444
:10259000CFAB2268536823F4806353602223236304
:1025A000282384F83D308BE7002D3FF4C1AB920522
:1025B0007FF5BEAB628D92B2002A3FF4B9AB1A69C7
:1025C000636A1A7039E600BFB91A00080000FFFFFD
:1025D000F8B50368044659695E6890F83E2011F426
:1025E0008075D2B20AD016F4807507D06FF480706F
:1025F00001255861186840F40040186001F48060BB
:1026000001F40067890510D5F1050ED56FF400714E
:1026100045F00205596160B917BB236C20462B4376
:102620002364BDE8F840FFF7B9BA002849D0F105A6
:102630004AD5B4F82AC094F83D00202A6FF480618E
:10264000D4F830E01FFA8CFCC0B262D1BCF1000FAC
:102650000DD0596145F00405002FDED0F205DCD520
:102660006FF40062236845F008055A61D5E700F071
:10267000F702212A04D02828EBD1BEF1210FE8D19E
:1026800094F83D20E16AD2B2082901D020291ED158
:10269000282A1CD1254A2046E2625A6822F4E062C8
:1026A0005A606FF480625A611A6822F480621A607C
:1026B00000232022236384F83D2084F83E3002F07A
:1026C00046FB0FB1F305CBD4002DA6D1F8BD212ACE
:1026D0001BD11649E16222630021202284F83D20AB
:1026E00084F83E105A6822F4E0625A606FF4806207
:1026F0005A611A6822F480621A605A69100648BF4B
:102700001961204602F04AFBDBE76FF480625A61F0
:10271000D7E7102A596145F0040501D0402A9BD122
:102720001A6842F400721A6096E700BF0000FFFFCB
:1027300090F83D007047006C704700002DE9F341B0
:10274000054638B30368DB0710D42B689F075ED4B7
:102750002B68190700F195802B685A0700F1C1809A
:10276000EB69002B40F02C81002029E0904C63683D
:1027700003F00C03042B07D0636803F00C03082B51
:102780000AD16368DE0307D523689C03DDD56B6837
:10279000002BDAD1012013E06B68B3F5803F12D132
:1027A000236843F480332360FEF764FD0646236804
:1027B0009803CAD4FEF75EFD801B6428F7D9032076
:1027C00002B0BDE8F0819BB9236823F48033236015
:1027D000236823F480232360FEF74CFD064623681C
:1027E0009903B2D5FEF746FD801B6428F7D9E6E7CA
:1027F000B3F5A02F236803D143F480232360CFE7F0
:1028000023F480332360236823F48023CBE7684CD0
:10281000636813F00C0F07D0636803F00C03082BF8
:1028200010D16368DA030DD423689B0702D52B69A6
:10283000012BAFD123686A6923F0F80343EAC2038E
:10284000236085E72A695B4B6AB101221A60FEF7B3
:1028500011FD064623689F07ECD4FEF70BFD801B95
:102860000228F7D9ABE71A60FEF704FD0646236895
:1028700098077FF56DAFFEF7FDFC801B0228F6D9A7
:102880009DE7AA694A4E4B4BE2B10122C3F880246E
:10289000FEF7F0FC0446736A9B070DD54FF4FA521D
:1028A000454B1B68B3FBF2F3019300BF019B5A1E1B
:1028B0000192002BF9D14FE7FEF7DCFC001B022848
:1028C000E9D97CE7C3F88024FEF7D4FC0446736A98
:1028D0009F077FF541AFFEF7CDFC001B0228F6D91C
:1028E0006DE7334CE369D80024D40127E36943F052
:1028F0008053E361E36903F080530093009B2F4E04
:102900003368D90518D5EB68012B26D1236A43F02B
:1029100001032362FEF7AEFC41F288380646236AC3
:102920009B073FD5002F3FF41BAFE36923F0805393
:10293000E36115E70027E2E7336843F4807333600F
:10294000FEF798FC80463368DA05DCD4FEF792FC8B
:10295000A0EB08006428F6D931E7ABB9236A41F24D
:10296000883823F001032362236A23F004032362DF
:10297000FEF780FC0646236A9807D3D5FEF77AFC5B
:10298000801B4045F7D91AE7052B236A03D143F092
:1029900004032362BAE723F001032362236A23F0CE
:1029A0000403B6E7FEF766FC801B4045B7D906E78F
:1029B000001002400000424224000020007000404D
:1029C0002A4C626802F00C02082A3ED00022022B38
:1029D000274B1A662CD1FEF74DFC06462368990159
:1029E00020D42B6AB3F5803F05D16268A96822F430
:1029F00000320A436260696A62680B4322F474120F
:102A00001343012263601A4B1A66FEF733FC054636
:102A100023689A013FF5A8AEFEF72CFC401B022864
:102A2000F6D9CCE6FEF726FC801B0228D6D9C6E6EE
:102A3000FEF720FC054623689B017FF595AEFEF767
:102A400019FC401B0228F6D9B9E6012B3FF4A2AECF
:102A500060682B6A00F480329A427FF49BAE6B6A06
:102A600000F47010C01A18BF0120A9E6001002403F
:102A7000000042420D4A536803F00C01082912D1AC
:102A80000B48C3F38341DB03405C09D55368094A13
:102A9000C3F340435043084AD35CB0FBF3F07047A4
:102AA000064B584370470348704700BF0010024070
:102AB0000275000800127A000075000800093D0048
:102AC0002DE9F0410D46044610B90120BDE8F08122
:102AD000444A136803F007038B4228D321688E070A
:102AE00030D4CA0743D43F4A136803F00703AB420C
:102AF00065D822683C4D12F0040F6CD1130706D53F
:102B00006B68226923F4605343EAC2036B60FFF7EA
:102B1000B1FF6B68354AC3F30313D35CD840344B21
:102B20001860344B1868FEF763FB0020CEE713688B
:102B300023F007030B431360136803F007038B4272
:102B4000C3D1CBE7284B11F0040F1EBF5A6842F4E3
:102B5000E0625A60080742BF5A6842F460525A6005
:102B60005A68A06822F0F00202435A60B9E762682E
:102B70001D4E012A33681AD113F4003FA5D07368A3
:102B800041F2883823F0030313437360FEF772FBAE
:102B900007467368626803F00C03B3EB820FA2D0A0
:102BA000FEF768FBC01B4045F3D903208EE7022ADD
:102BB00002D113F0007FE1E713F0020FDEE71368A4
:102BC00023F007032B431360136803F00703AB42A2
:102BD0007FF47BAF8DE76B68E16823F4E0630B4320
:102BE0006B608BE700200240001002405C7500081B
:102BF0002400002004000020044B054A5B68C3F356
:102C00000223D35C034A1068D8407047001002408A
:102C10005475000824000020044B054A5B68C3F388
:102C2000C223D35C034A1068D840704700100240AA
:102C3000547500082400002003682DE9F34105467F
:102C4000D80721D5364CE369D9002BD40126E36996
:102C500043F08053E361E36903F080530193019BE8
:102C6000304F3B68DA051FD5236A6A6813F4407356
:102C70002ED1236A6A6823F44073134323621EB182
:102C8000E36923F08053E3612A68910706D524495C
:102C9000A8684B6823F4404303434B60D30636D403
:102CA000002012E00026DBE73B6843F480733B60C2
:102CB000FEF7E0FA80463B68DB05D5D4FEF7DAFA8A
:102CC000A0EB08006428F6D9032002B0BDE8F0812B
:102CD00002F440729A42CCD00120134A236AC2F80F
:102CE0004004002023F44071DF07C2F84004216251
:102CF000BFD5FEF7BFFA41F288380746236A980726
:102D0000B7D4FEF7B7FAC01B4045F7D9DCE7044A51
:102D1000E968536823F480030B435360C0E700BFA6
:102D2000001002400070004000004242704710B5A1
:102D30000446002851D0436A002B4AD14268B2F5BC
:102D4000827F00D0C3610023A36294F8513003F066
:102D5000FF0223B9204684F85020FFF7E7FF022343
:102D6000226884F851301368A06823F04003136090
:102D7000636800F4044003F482730343E068A169CC
:102D800000F400600343206900F00200034360691F
:102D900000F00100034301F400700343E069090CF3
:102DA00000F038000343206A01F0040100F08000C5
:102DB0000343A06A00F40050034313605160D369D9
:102DC000002023F40063D3610123606584F851304F
:102DD00010BD0023C0E90433B5E70120F8E77047D0
:102DE0007047036870B5DD681E690446B1070DD5EC
:102DF000AA070BD56FF002021A61012202779B69C4
:102E00009B0769D000F067FC00232377710710D57A
:102E10006A070ED56FF00402236820461A61022269
:102E200022779B6913F4407F5CD000F054FC0023B0
:102E3000237733070FD528070DD56FF008022368D5
:102E400020461A6104222277DB69990750D000F0EE
:102E500042FC00232377F20610D5EB060ED56FF067
:102E60001002236820461A6108222277DB6913F4D6
:102E7000407F43D000F02FFC00232377F00708D5D4
:102E8000E90706D56FF00102236820461A6100F0B9
:102E9000FFFB320608D52B0606D56FF080022368AB
:102EA00020461A6100F091F8700608D5690606D52B
:102EB0006FF04002236820461A61FFF791FFB206C7
:102EC00022D5AB0620D56FF0200223682046BDE84E
:102ED00070401A6100F078B800F0FBFB2046FFF765
:102EE0007EFF91E700F0F5FB2046FFF778FF9EE7B5
:102EF00000F0EFFB2046FFF772FFAAE700F0E9FBC6
:102F00002046FFF76CFFB7E770BD0000174A036863
:102F100090420AD0B0F1804F07D0A2F5943290428F
:102F200003D002F58062904207D14A6823F0700313
:102F30001343CA6823F4407313434A6923F08003A0
:102F4000134303608B68C3620B688362074B98422C
:102F500004BF0B690363012343610369DB0742BFBD
:102F6000036923F001030361704700BF002C014097
:102F700010B5044630B390F83D3003F0FF021BB9A2
:102F800080F83C2001F05CF80223206884F83D3092
:102F9000211DFFF7BBFF0123002084F8463084F891
:102FA0003E3084F83F3084F8403084F8413084F873
:102FB000423084F8433084F8443084F8453084F853
:102FC0003D3010BD0120FCE770477047026802F1F8
:102FD0000C0353E8003F23F490730C3242E80031B5
:102FE00002680029F2D102F1140353E8003F23F0F4
:102FF000010302F1140C4CE800310029F3D1036BFA
:10300000012B0BD102F10C0353E8003F23F0100316
:1030100002F10C0C4CE800310029F3D1202380F898
:10302000423000230363704790F84130202B10D1C9
:1030300089B182B1C28482840023212201620168A5
:10304000436480F84120CA68184642F08002CA6092
:103050007047022070470120704708B50023406A7E
:10306000C385C38401F07AF808BD704790F84230F8
:1030700007B5222B42D181680268B1F5805F836A6F
:103080003FD1016900293FD15268C2F3080223F8F9
:10309000022B8362C38D013B9BB2C385002B2DD1D4
:1030A0000268D16821F02001D160D16821F48071DB
:1030B000D160516921F001015161202280F8422044
:1030C0004363026B012A026828D1036302F10C03F7
:1030D00053E8003F23F0100302F10C0C4CE80031E0
:1030E0000029F3D11368DB0605D50191136801931C
:1030F00053680193019B818DFFF7B7FF03B05DF823
:1031000004FB39B9016929B95268D2B21A70836ACD
:103110000133BEE7526802F07F02F7E701F018F8CA
:10312000ECE70000036873B51A6804461607D9680F
:103130005D690AD1960640F18B808D0640F188804A
:1031400002B0BDE87040FFF791BF15F001054BD00C
:1031500012F0010F02F0040363D11BB1636C43F062
:1031600002036364930749D5636C12F0080F43F0C0
:103170000403636403D0636C43F008036364636C0B
:10318000002B5FD0920604D58B0602D52046FFF7B0
:103190006DFF266820467369626C03F0400302F0FD
:1031A000080253EA02054FD0FFF710FF73695E066D
:1031B00045D5226802F1140353E8003F23F0400391
:1031C000143242E800310029F3D1E06B002836D0F8
:1031D000894B4363FEF70EF9002833D0E06B436B55
:1031E00002B0BDE87040184711F4907F30D012F063
:1031F000010F02F0040307D190070DD41007BED5CC
:1032000001F020032B43B5E7CE050FD4002BF3D1FB
:103210009607F3D5002DA7D11507B0D511F0200FD3
:10322000A8E7C80502D4002B98D1F1E7636C5607D4
:1032300043F001036364EBD5002DDDD08EE720461B
:1032400000F08CFF02B070BD00F088FF6564F9E704
:10325000206B012840F09480D50640F19180C8068B
:1032600040F18E80002201921A6801925A68019200
:10327000019A5A6952064DD5E16B0A68526892B2BA
:10328000002ADFD0A08D9042DCD9E2858A69202A0D
:1032900036D003F10C0252E8002F22F4807203F1C1
:1032A0000C0040E800210029F3D103F1140252E898
:1032B000002F22F0010203F1140040E80021002950
:1032C000F3D103F1140252E8002F22F0400203F17F
:1032D000140040E800210029F3D1202284F8422084
:1032E000216303F10C0252E8002F22F0100203F1D7
:1032F0000C0040E800210029F3D1E06BFEF75AF8FA
:1033000002236363E38DA18DC91A89B22046FFF7BA
:10331000ACFE97E7E28DE08DA18D80B292B20028DD
:1033200090D0891A89B200298CD003F10C0252E89E
:10333000002F22F4907203F10C0545E800200028CC
:10334000F3D103F1140252E8002F22F0010203F13D
:10335000140545E800200028F3D1202284F84220FB
:10336000206303F10C0252E8002F22F0100203F157
:103370000C0545E800200028F3D102236363C5E76C
:10338000160628D50D0626D594F84120212A7FF46B
:1033900059AFA168226AB1F5805F17D12169A9B937
:1033A00032F8021BC1F3080159602262E28C013A33
:1033B00092B2E284002A7FF445AFDA6822F08002FC
:1033C000DA60DA6842F04002DA603BE7511C2162C1
:1033D00012785A60EAE750067FF534AF4A067FF567
:1033E00031AFDA68204622F04002DA60202384F808
:1033F000413000F0B0FE25E75B30000890F8403027
:10340000012B11D02423026880F84130D36823F0C7
:103410000C0343F00803D360202380F841300023DD
:1034200080F84030184670470220704790F84030CE
:10343000012B11D02423026880F84130D36823F097
:103440000C0343F00403D360202380F841300023B1
:1034500080F84030184670470220704790F84120AD
:1034600090F84200104370470023C2854364222332
:103470008285026980F84230816203681AB1DA6895
:1034800042F48072DA605A69002042F001025A6107
:10349000DA6842F02002DA60704770B490F8426057
:1034A000202E06D141B13AB10024046370BCFFF76D
:1034B000DBBF022070BC70470120FBE7836810B5BA
:1034C00004462BB10322014698470023C4E9023386
:1034D00010BD836810B5044613B103220146984716
:1034E000204610BD0B4B98420BD0B0F1804F0AD054
:1034F000A3F59433984208D003F58063984206D030
:10350000FEE700207047012070470220704703202B
:10351000704700BF002C0140024670B5044652F8C7
:10352000100FFFF7DFFF0546104600F01BFD0023DC
:10353000084A04F1600642F82530E36004F1B00562
:10354000B54204D0103D2846FFF7C3FFF8E72046F8
:1035500070BD00BFA0000020F8B504460846FFF784
:10356000C1FF236903B1FEE71B4D04F10C0245F8CE
:1035700020200E2204F110063046C4E90C33C4E9C1
:103580000E33C4E91033C4E91623216184F82C30CA
:10359000A36484F84C3084F84D30E46000F09EFC65
:1035A00004F1600504F1B00728461035FFF786FFE7
:1035B000BD42F9D100234FF6FF72C4E90033C4E9DC
:1035C0000632C4E90833A360636180233046A362F6
:1035D000BDE8F840FFF7CCBCA0000020034B186802
:1035E00010B10430FFF7FDBB704700BFA000002002
:1035F000FFF7F4BF034B586810B10430FFF7F1BB7D
:10360000704700BFA0000020034B986810B1043041
:10361000FFF7E7BB704700BFA0000020034BD8684E
:1036200010B10430FFF7DDBB704700BFA0000020E1
:103630000022C0E90022C0E902227047F8B5044622
:103640000E4600F1600500F1B00728461035FFF77F
:10365000EFFFBD42F9D10023204631462361FFF739
:103660007BFF2046F8BD826810B50AB903F0C0F8A8
:10367000C368BDE81040184708B500B9FEE700F080
:103680002BFC0068836E13B16030FFF7ECFF08BDC0
:10369000FFF7F2BF10B500B9FEE7037F013B072B30
:1036A00010D8DFE803F004140F100F0F0F120124DD
:1036B00000F012FC0068063400EB041083680BB1C4
:1036C000FFF7D1FF10BD0324F2E70424F0E7022442
:1036D000EEE7FFF7DFBFFFF7DDBF03F009BB03F045
:1036E0000FBB000086B0042841D8DFE800F00310CB
:1036F0001C2834001F4B20489A6942F004029A614A
:103700009B6903F004030193019B06B07047194BBA
:103710001A489A6942F008029A619B6903F008030B
:103720000293029BF1E7134B15489A6942F010028D
:103730009A619B6903F010030393039BE5E70D4B2C
:1037400010489A6942F020029A619B6903F02003B5
:103750000493049BD9E7074B0B489A6942F0400257
:103760009A619B6903F040030593059BCDE7002018
:10377000CBE700BF0010024000080140000C0140F0
:10378000001001400014014000180140F8B5144930
:10379000074600F059FBFFF7A5FE124E044656F807
:1037A000203073B9B020FFF798FF0D490546384621
:1037B00000F04AFB01462846FFF740FF56F8243048
:1037C0001D6056F824301C6844B12046FFF7A4FE63
:1037D0002046BDE8F840B021FFF781BFF8BD00BF2B
:1037E000E8710008A0000020FDF744BD704708B54F
:1037F000FDF734FDFDF7C9FDFFF7F8FF08BD704781
:103800000F4B84B0DA6942F08052DA61DA6902F073
:1038100080520192019A9A6942F001029A619A6972
:1038200002F001020292029A5A6942F040025A6181
:103830005B6903F040030393039B04B0704700BF30
:10384000001002400C4BD3F8FC20D2015EBFD3F82D
:10385000FC2042F08072C3F8FC200022074B5A6023
:103860001A6842F001021A6000BF00BF00BF58682A
:10387000B0FA80F04009704700ED00E0001000E071
:1038800008B5FFF7BDFFFFF7DDFFFDF7D5FCFFF73C
:10389000B6FFFDF76DFCBDE808400148FDF77ABDB5
:1038A0001C0000200023C0E90033C0E90233704748
:1038B0000023012803F101020AD11422DBB2534391
:1038C000054A181D1044816829B11A441369184724
:1038D00013464008EDE77047B00000200120FDF7D7
:1038E000D3BD0220FDF7D0BD0420FDF7CDBD0820DB
:1038F000FDF7CABD1020FDF7C7BD38B5052420254A
:10390000A8B2FDF7C1FD013C4FEA4505F8D138BD2D
:1039100038B506244FF48065A8B2FDF7B5FD013C2B
:103920004FEA4505F8D138BD344A08B5104606239C
:1039300000F8043BFFF7B6FF072302F118001375E8
:10394000FFF7B0FF082302F12C0082F82830FFF7C0
:10395000A9FF092302F1400082F83C30FFF7A2FFE3
:103960000A23172102F1540082F85030FFF79AFF22
:1039700002F1680082F86410FFF794FF02F17C0006
:1039800082F87810FFF78EFF02F1900082F88C1019
:10399000FFF788FF02F1A40082F8A010FFF782FF72
:1039A00082F8B410282102F1B800FFF77BFF02F182
:1039B000CC0082F8C810FFF775FF02F1E00082F832
:1039C000DC10FFF76FFF02F1F40082F8F010FFF750
:1039D00069FF02F5847082F80411FFF763FF02F5B6
:1039E0008E7082F81811FFF75DFFBDE8084002F500
:1039F000987082F82C11FFF755BF00BFB00000206F
:103A000038B5054CA4F5A075143C201DFFF761FDE9
:103A1000AC42F9D138BD00BFF00100207B4B82B031
:103A20009A69013842F001029A619B6903F001032F
:103A30000193019B23282CD8DFE810F024002D00EF
:103A400034003B00400047004C00530058005F002A
:103A500068006D0074007D008200890092009B0068
:103A6000A000A700B000B500BC002B002B002B006D
:103A7000C100C8002B002B002B002B00CD00D20072
:103A8000D900E000624A536843F0E06343F0010369
:103A9000536002B070475E4A536823F0010343F05D
:103AA000E063F5E75A4A536843F0E06343F00203EA
:103AB000EEE7574A536823F00203F0E7544A53688D
:103AC00043F0E06343F00403E2E7514A536823F014
:103AD0000403E4E74E4A536843F0E06343F008030D
:103AE000D6E74B4A536823F00803D8E7484A53689F
:103AF00043F0E06343F03003CAE7454A536823F0DC
:103B0000300343F0E06343F01003C1E7404A5368D9
:103B100023F03003C3E73E4A536843F0E06343F0C9
:103B2000C003B5E73A4A536823F0C00343F0E063AB
:103B300043F04003ACE7364A536823F0C003AEE7D6
:103B4000334A536843F0E06343F44073A0E7304ADC
:103B5000536823F4407343F0E06343F4007397E742
:103B60002B4A536823F4407343F0E06343F48073BB
:103B70008EE7274A536823F4407390E7244A53683A
:103B800043F0E06343F4406382E7214A536823F43F
:103B9000406343F0E06343F4006379E71C4A5368F1
:103BA00023F440637BE71A4A536843F0E06343F42D
:103BB00080536DE7164A536823F480536FE7144A25
:103BC000536843F0E06343F4004361E7104A5368ED
:103BD00023F4004363E70E4A536823F0E06357E79A
:103BE0000B4A536823F0E06343F0807350E7084AC0
:103BF000536823F0E06343F0007349E7044A5368D5
:103C000023F0E06343F0806342E700BF001002400E
:103C10000000014091FAA1F3B3FA83F370B50D0EE1
:103C20000F2691FAA1F1B1FA81F144599B0006FAED
:103C300003F3890024EA03048A402243425170BD01
:103C400091FAA1F3B3FA83F370B50D0E042691FA3D
:103C5000A1F1B1FA81F144599B0006FA03F38900FE
:103C600024EA03048A402243425170BD431C04D01D
:103C70000C3151F80C3C5A1C01D100207047834292
:103C800001F10C01F5D1012070470000431C2DE922
:103C9000F34107460E4600D1FEE75C4B00F00F02F1
:103CA000C0F3031001F0070853F82250FFF71AFD84
:103CB000B8F1010F044615D195FAA5F3B3FA83F3D1
:103CC0000321280E22589B0001FA03F322EA030283
:103CD00095FAA5F3B3FA83F39B0099401143215061
:103CE000012247E0C6F30620B8F1030F0AD801A36A
:103CF00053F828F0073D0008E13C00086B3D000840
:103D00008D3D0008FEE7FFF789FE08222946204680
:103D1000FFF780FF95FAA5F22B0EB2FA82F2E15876
:103D20000F2392009340C6F301160B4095FAA5F2BB
:103D300072BB012E45D0022E57D0354B9A6942F006
:103D400001029A619B6903F001030193019BA7F1B2
:103D50000D03012B4DD82F4A536823F0E06343F045
:103D60008063536002B0BDE8F0817F2801D0FFF787
:103D700055FE092229462046FFF74CFF16F008029F
:103D800018BF04222946FFF75BFFC3E70022BDE707
:103D9000B2FA82F2012E4FEA820223FA02F309D02C
:103DA000022E1BD0082BC8D1042229462046FFF73B
:103DB00031FFC2E7042B04D1082229462046FFF731
:103DC00029FF01232A0A92FAA2F2B2FA82F2E168EA
:103DD000934021EA15210B43E360AEE7042B04D1A5
:103DE000082229462046FFF715FFE36823EA15233A
:103DF000F2E70F2F02D0133F012FB3D8054A5368C3
:103E000023F0E06343F00073ABE700BF14750008D4
:103E10000010024000000140431C06D1704783425D
:103E200002D18968FFF732BF0C310B685A1CF6D1FA
:103E3000FEE70B685A1C01D100207047834201D174
:103E4000486870470C31F4E7431C01D0FFF7F1BF1D
:103E5000002070474B6813B94FF0FF307047834222
:103E600001D1086870470C31F4E708B1FFF7F2BFE1
:103E70004FF0FF30704703468B42084604D01BB119
:103E800000290CBF18460020704700000F4B1A682D
:103E900042F001021A6059680D4A0A405A601A68D5
:103EA00022F0847222F480321A601A6822F480228E
:103EB0001A605A6822F4FE025A604FF41F029A6098
:103EC0004FF00062034B9A60704700BF0010024041
:103ED0000000FFF800ED00E00438704703681D4A59
:103EE00084B093420BD11C4B9A6942F400629A61F0
:103EF0009B6903F400630093009B04B07047B3F127
:103F0000804F0BD103F50433DA6942F00102DA6124
:103F1000DB6903F001030193019BEEE70F4A934233
:103F20000AD10D4BDA6942F00202DA61DB6903F073
:103F300002030293029BE0E7094A9342DDD1064B5C
:103F4000DA6942F00402DA61DB6903F004030393E7
:103F5000039BD2E7002C0140001002400004004007
:103F6000000800400368124A934206D102F56442F9
:103F7000936923F4006393617047B3F1804F05D1D7
:103F80000C4AD36923F00103D36170470A4A934274
:103F900005D102F50332D36923F00203F4E7074A9F
:103FA0009342F2D102F50232D36923F00403EBE726
:103FB000002C0140001002400004004000080040B6
:103FC000431C10D00C4B984210D007D8B0F1804F52
:103FD0000ED0A3F5806398420CD0FEE7074B9842C1
:103FE000FBD1192070476FF00D0070471E207047FD
:103FF0001C2070471D20704700080040002C014025
:10400000431C10D00C4B984210D007D8B0F1804F11
:104010000ED0A3F5806398420CD0FEE7074B984280
:10402000FBD11B2070476FF00D0070471E207047BA
:104030001C2070471D20704700080040002C0140E4
:1040400038B50446FFF74AFF0068FFF7B9FFD4E927
:104050001212FDF727F92068FFF7B2FFFDF752F9BA
:1040600022681046FFF7CCFF05461046FFF7A8FF71
:1040700085420BD0D4E912122846FDF713F92068C7
:10408000FFF7BEFFBDE83840FDF73CB938BD000082
:1040900008B5074B90F8652053F82200FFF7DEF9CA
:1040A00000F02200A0F122035842584108BD00BF91
:1040B000F001002008B5074B90F8652053F8220066
:1040C000FFF7CCF900F02100A0F12103584258413C
:1040D00008BD00BFF001002038B515460446B8B150
:1040E000016590F96400FDF71BF9B4F87630E16ED4
:1040F0009BB294F865001944064BAAB253F820000D
:10410000FEF792FF94F96400BDE83840FDF7FAB875
:1041100038BD00BFF001002048B1836D013306D1E6
:1041200090F86520024B53F82200FFF767B97047FB
:10413000F001002048B1836D013306D190F865206D
:10414000024B53F82200FFF771B97047F0010020CD
:10415000836C04381847C36C0438184730B50446DC
:1041600050F8043985B01D6815F0010512D0002201
:1041700000921A6800925B680093009BFFF788FF2B
:1041800040BB0122204604F1620105B0BDE8304089
:10419000FFF783B9196811F0020106D001951A687A
:1041A00001925B680193019BE8E71A6812F0040230
:1041B00006D002911A6802925B680293029BDDE7C7
:1041C00019680907DAD503921A6803925B680393AA
:1041D000039BD3E705B030BD08B52520FDF7C6F831
:1041E000024B1868BDE80840FEF79CBFF0010020B4
:1041F000262008B5FDF7BAF8034B586818B1BDE89A
:104200000840FEF78FBF08BDF0010020272008B549
:10421000FDF7ACF8034B986818B1BDE80840FEF70D
:1042200081BF08BDF001002003460A4910B50868A7
:104230000344EFF30882934205D90C224FF0FF307C
:10424000054B1A6010BD054A054C121B9342F4D26F
:104250000B60F7E7280000204406002000500020F3
:1042600000040000FEE700001622024B4FF0FF3072
:104270001A607047440600200120704700000000CB
:104280002DE9F84302F008F92F4B304D1E681860F5
:10429000861BC02002F0C2F8071E18BF01272C4B56
:1042A00004461B78BB4202D002F0F6F8286002F008
:1042B000F3F82B68274DC01A1E280AD9264B286808
:1042C0001A78BA4205D01F701CB92449FCF7CCFB00
:1042D0002860D5F800803046214FFCF775FC414638
:1042E000FCF7CAFC3968FCF7BFFB0446FCF774F81E
:1042F00011A3D3E90023FCF743FBC0B94046FCF708
:104300006BF8804630468946FCF744F80CA3D3E9A5
:104310000023FCF7B9F802460B4640464946FBF736
:10432000FBFEFCF74BFB3C602860BDE8F8830024F3
:104330002046F8E7AFF300809A9999999999B93F87
:104340009A99999999992340FC0100200002002034
:104350002D000020040200202C000020000020413D
:10436000080200200D4B07B59A680D480021C0F8DF
:104370008420DB68C0F8883000F0E2FA0221C02017
:1043800001F0B4FF01233C2202210648009301F012
:1043900067FA00B9FEE703B05DF804FB7474000827
:1043A000780200200C0200201FB5084B084A80212B
:1043B000CDE901324FF0FF33402200930548064B10
:1043C00001F03AF905B05DF804FB00BF801A060061
:1043D000A08601000C02002078020020014801F0B4
:1043E00057B900BF0C02002037B51C4C01252046F0
:1043F00001F028FA2046012101F0AFF84FF4202205
:104400004FF00113C4E90423154B0222196820461A
:1044100001F0F6FE36222046CDE90025802300215A
:1044200000F010FE0F4B10491868FCF71DFB014609
:104430004FF08540FCF716FBFCF7FAFD14230093C0
:104440000A2302B219462046019500F0BAFD204623
:1044500003B0BDE8304001F043BD00BF0C020020B6
:1044600004020020080200200000F04108B5FFF718
:1044700007FFBDE80840FFF7B7BF00207047028B79
:10448000C08A101A70470346C28A018B914281BFCD
:104490000169885C0132DA8298BF4FF0FF307047C3
:1044A000028BC38A9A4286BF0269D05C4FF0FF300C
:1044B0007047806DD0F8DC302BB10023D43020F869
:1044C000B23CC3681847704770B54FF47A730E4614
:1044D0000021C0E90113034615462B4A044643F860
:1044E000C42BC0F8C4109C22C3E90111C0E93411E7
:1044F000C0E93611C0F8E010283002F0EDFCF3B24C
:10450000222B19D8214A06F4E06652F823301E43C4
:10451000EBB2222BC4F8846022D81C4A05F4E06573
:1045200052F823301D4300232046C4F88850E3612D
:1045300023842361A38270BD06F0C002C02A0CD17F
:10454000C92B0AD8124B06F03F0253F822200F4B1A
:1045500006F4E06653F82230D9E74FF0FF36D7E78C
:1045600005F0C002C02A0CD1C92B0AD8084B05F0AF
:104570003F0253F82220054B05F4E06553F8223042
:10458000D0E74FF0FF35CEE774750008747400086B
:104590004C74000838B50446283000F09DFAE069F4
:1045A00018B102F0ADFB0023E361002520692584EA
:1045B00010B102F0A5FB2561A58238BD38B50546CE
:1045C0000446074B45F8D43BFFF7E4FF2846FEF7C7
:1045D00080FF04F1C400FEF77CFF204638BD00BF19
:1045E0007475000838B5044600F12805284600F027
:1045F000B1FA94F8BE304BB92846054900F06CFB7F
:104600002846BDE83840034900F05FBB38BD00BF15
:10461000B34400084D4600080123994080F8243037
:10462000002381764384704738B5838A05468B42E0
:104630000C4609D2202938BF20240069214602F007
:1046400015FC10B12861AC8238BDFEE773B5846DEE
:104650000546D4F8CC30866EE3B1E28A238B9A42C9
:1046600018D331462046FFF7DFFF3246206905F1B7
:10467000740102F0B3FC0023E382D4F8CC3026832B
:1046800001960BB902F0B4F8D4F8D03001A904F1C6
:10469000C400984702B070BDB1F5806F70B5054693
:1046A0000C4610D8038C99420AD920290E4638BFEF
:1046B0002026C069314602F0D9FB18B1E8612E848A
:1046C000204670BDFEE70024FAE713B590F82430C9
:1046D00004468DF807107BB1418C0131FFF7DCFFF8
:1046E00040B10120638C9DF80710E269D154638CBE
:1046F0000133638402B010BD01220DF1070128309F
:1047000000F058FAB0FA80F04009F3E770B590F87D
:10471000243004460E46154693B1418C1144FFF7F0
:10472000BBFF10B90025284670BD638CE0692A469E
:104730001844314602F052FC638C2B446384F2E748
:1047400092B2283000F036FA0028EBD1EBE70346AE
:10475000006918B100219A8A02F0BEBB7047034677
:10476000C06918B100211A8C02F0B6BB704738B589
:104770000446D1B94FF42A03A36594F8BE30012B47
:1047800016D1638CE269A17E04F1280000F04CFA96
:10479000042828BF042045B22046FFF7E0FF00238D
:1047A000638484F82430E8B238BD4FF02A43E3E74D
:1047B0000425F8E70121FFF7DABF38B500250446E4
:1047C000C5820583FFF7C3FF20466584FFF7C7FF57
:1047D00038BD0000F8B50446D0F8840001F06CFD47
:1047E000002101F083FDD4F88420C2F30313042BCD
:1047F00047D8274D274E55F8233002F00F029B680B
:1048000056F82220DB4303EA12239BB2002B3ED052
:10481000D4F8880001F050FD012101F067FDD4F8C3
:1048200088001D4BC0F3031104291B682CD81B4CB6
:104830001427B3FBF4F30A2400F00F0256F82220E9
:104840006343174CC2F30F2255F821C0CCF8142053
:10485000D4F804E06668A6EB0E06B342FADCCCF8A6
:104860001020D4F804C06668A6EB0C06B342FADC4C
:10487000013FE9D101F020FD3946BDE8F84001F0E3
:1048800035BD00239B68FFDE00235B61FBE7F8BDBD
:1048900008000020147500082400002040420F008A
:1048A000001000E02DE9F04100250446C582058393
:1048B0001F460E469046FFF74AFF20466584A576C0
:1048C000FFF74DFFD4F8DC30C4F8804033B104F179
:1048D000D401032208469847C4E937550023012E26
:1048E00084F824304FEA460384F825300CBF0123B6
:1048F000002384F8BF8084F8BE3084F8C07002D1F1
:104900002046FFF767FF04F12805284694F8252084
:10491000084900F029F894F8BE304BB928460649FA
:1049200000F0DAF92846BDE8F041044900F0CDB9BD
:10493000BDE8F081A0860100B34400084D460008A0
:104940000A4600230121FFF7ADBF00000322022128
:104950000148FFF7B9BD00BF780200200148FFF70A
:104960002DBE00BF78020020F7B50D46174604465D
:10497000002800F09F805049C06DFFF765FA4F494D
:104980000646206EFFF760FA0146002E00F0928086
:10499000002800F08F803046FFF76DFA2060002875
:1049A00000F08880464B261D984260D103F5DE3327
:1049B000DA6942F40012DA61DA6902F40012009254
:1049C000009A1A6942F400121A611A6922F400125C
:1049D0001A6142F21F03A4F864303A4B1E60374953
:1049E000206EFFF719FA3449E06DFFF715FA364BE0
:1049F00021689D4258D9354B9D4203D9344B9D4285
:104A000088BF00234FF480420025C4E901134FF40E
:104A10008043C4E9053594F8973002215B1B18BF29
:104A200001239B01236294F89830C4E903275B1BA0
:104A300018BF0123DB0163622A4694F96400E56133
:104A400084F84150FCF72EFC94F96400FCF75AFC02
:104A50002A46022194F96500FCF724FC94F96500CC
:104A6000FCF750FC3046FCF75DFDF8B1FEE7194B52
:104A70009842B4D103F5DC33DA6942F48002DA619A
:104A8000DA6902F480020192019A1A6942F4800202
:104A90001A611A6922F480021A6142F22123A4F8F1
:104AA0006430084B5E609AE70022ADE70223A066FF
:104AB00084F8953003B0F0BD1C740008EC73000856
:104AC000005400405C030020A0860100801A06000C
:104AD00040420F000058004010B5044690F96400B1
:104AE000FCF71EFC94F96500FCF71AFC201DFCF78E
:104AF000C0FD0321206EFFF7C9F80321E06DFFF729
:104B0000C5F82368104A93420DD1104B1A6942F43C
:104B100000121A611A6922F400121A61DA6922F489
:104B20000012DA6110BD0A4A9342FBD1074B1A69A1
:104B300042F480021A611A6922F480021A61DA6969
:104B400022F48002EDE700BF005400400010024054
:104B500000580040144B10B59942044642680FD8E3
:104B6000116821F0010111600022C4E90232201D08
:104B7000FCF7D8FC6268136843F00103136010BDB2
:104B80000A4B994202D90A4B994206D8116821F082
:104B9000010111604FF48042E7E7136823F001033D
:104BA00013600023F6E700BFA0860100801A06000C
:104BB00040420F00202A30B514D800239CB2A242F4
:104BC00007D890F894301344DBB280F8943000207A
:104BD00030BD90F89440CD5C1C44044484F874507B
:104BE0000133EBE70120F3E710B5642304460430FA
:104BF000FCF758FD02280AD0032801D068B910BD7F
:104C000094F84130202B0CBF02200520F7E794F8E0
:104C10004130202B18BF0620F1E794F84130202BBB
:104C20000CBF02200420EAE72DE9F34704460E46B4
:104C300091461F46FCF71EFB80463FB901223146D4
:104C4000204602B0BDE8F047FFF7CEBF0025D4F8FC
:104C500030A004343B464A4631462046CDF800A0F9
:104C6000FCF7D0FD022807D1FCF704FBA0EB0805F8
:104C7000642DEFD906201FE008BBFCF7FBFA0646BF
:104C80002046FDF755FD202809D0632D07D8FCF7F5
:104C9000F1FA851B2046FDF74EFD0028F0D0204696
:104CA000FDF749FD632D0CD882060AD443070AD4C8
:104CB000003818BF0120800002B0BDE8F087042052
:104CC000FAE70520F8E70320F6E720B119B1C1663D
:104CD0000430FCF775BE704720B119B1016704308C
:104CE000FCF76EBE704770B590F891300446012B0A
:104CF0000D46A0F1040609D1436E3BB1836E3046E8
:104D00009847022384F89130002363668DB9E36EDF
:104D100084F891501BB1304684F890509847204653
:104D200094F8902004F170012023BDE87040FCF756
:104D3000D1BD00230122636684F89120616E204674
:104D4000743131440423BDE87040FCF7FEBD10B55A
:104D500090F891300446012B04D1436E13B1836E59
:104D600004389847022384F8913000232046636674
:104D7000BDE81040FCF724BE436E1F2BDEBF436E20
:104D80000133436690F89130012BDAB205D1416EC0
:104D9000042370310144FCF7D8BD7047002380F82C
:104DA0009030704790F892300BB9FCF709BE70470D
:104DB000014B1868FCF7A0BF5C030020014B18688A
:104DC000FDF706BC5C030020014B5868FCF794BF5C
:104DD0005C030020014B5868FDF7FABB5C03002020
:104DE00070472DE9F04F16461F4685B0BDF93830A3
:104DF000A7EB0109A3EB0608B8F1000FB8BFC8F193
:104E00000008B9F1000FBDF83C20B8BFC9F1000996
:104E1000C84582460C46009204DD3A4634461F4699
:104E20000E461346BC4205DD32461E461346224658
:104E30003C4617463D1BAAB201929A1B9E42B4BF44
:104E400001234FF0FF3382EAE271A1EBE2712AB253
:104E5000C5F3C035154402916D100393BC4202DDC9
:104E600005B0BDE8F08FDAF80030C845C7BF22466C
:104E7000314632462146D3F818B05046009BD847F9
:104E8000029BED1AABB22DB2002D05DA039A16443F
:104E9000019A36B213441DB2013424B2DEE77047E2
:104EA00010B404682469A44610BC604730B4BDF84F
:104EB000085004680295A46BA44630BC604730B427
:104EC000BDF8085004680295E46BA44630BC604706
:104ED00070B4BDF90C50BDF810600468CDE90356FC
:104EE000246CA44670BC60472DE9F3411C4616466D
:104EF00005460F460368013CBDF820805B693444D9
:104F0000984724B22B68CDF80480009428469C6A08
:104F100032463B463946A04728462B68DB6A02B03A
:104F2000BDE8F04118472DE9F341044617461D46F8
:104F30000E460368BDF820805B6998472268CDE97A
:104F400000786B1E33442046956A31463A461BB2C0
:104F5000A84720462368DB6A02B0BDE8F041184745
:104F60002DE9F3471E4603680C465B690546174664
:104F7000BDF92880BDF82C9098472644B4422B6890
:104F800005DB2846DB6A02B0BDE8F0471847CDF8DC
:104F900000902146D3F820A03A46434628460134E3
:104FA000D04724B2EAE713B50191B0F90E100268B8
:104FB0000091146C0022B0F90C301146A04702B0E9
:104FC00010BD2DE9F34704460F4616461D460368FB
:104FD000BDF82C805B69BDF9289098472368CDF80F
:104FE0000080324639462046D3F824A02B46D047CD
:104FF000236809F1FF32CDF800803244394620465B
:10500000D3F824A012B22B46D0472368CDF80080F5
:10501000324639462046D3F820A04B46D047013DC2
:105020002368E919CDF8008020461D6A32464B46B8
:1050300009B2A84720462368DB6A02B0BDE8F04702
:10504000184770472DE9F7439942164680460D46AA
:105050001C46BDF92870BDF82C90026812D1BE42E2
:10506000C2BF33463E461F46CDF828907B1C946B4A
:105070009B1B324629464046A4461BB203B0BDE8FE
:10508000F0436047BE420AD19942C2BF0B46254653
:105090001C46CDF82890631C5B1BD46BE9E7536971
:1050A0009847D8F80030CDE9007940469F6A3246EB
:1050B00023462946B8474046D8F80030DB6A03B09B
:1050C000BDE8F043184701F003038376B0F90830D8
:1050D000C90758BF1946B0F90A205CBF13460A46F3
:1050E000C38182817047000030B501810024818135
:1050F0004FF0FF31054D4281C281054A4460C0E94D
:105100000512056004610477046230BDA0750008D3
:10511000010100012DE9F04F0026B046354687B069
:105120000393BDF84830BDF9409004930368CDE97E
:1051300001125B690446BDF944A0984719F10703C1
:1051400048BF09F10E03DB100093029B03EB08023A
:105150000FFA88F39A4512B221DD039B002703EB77
:10516000060B14E059070BBFDB106D001BF8035052
:10517000EDB22B060AD5019B0592D919236820466A
:105180009B6909B29C46049BE047059A01373BB2F4
:105190004B45E7DB009B08F101081E44D5E720469C
:1051A0002368DB6A07B0BDE8F04F18472DE9F04FE0
:1051B00093B01E460392BDF87030026A8246BDF875
:1051C00074709DF878509DF87C4005910493002AF6
:1051D00040F0B980B0F90C308B4240F33881B0F91F
:1051E0000E30039A934240F33281062303FB0513EA
:1051F000002B40F32C81039B03EBC403002B40F3F3
:105200002681037F1BB9AF2E84BF0136F6B2DAF8D0
:10521000003050465B69984705234FF000080A9319
:105220008C4B06EB860633440E93BDF80C30069388
:105230000E9BBDF8146013F808304FF00009079377
:105240001FFA88F3089305FB03631BB20993082335
:105250000B932BB20C9323B20D93079ADAF800301C
:10526000D2074ED5012D06991FFA89F23BD1012CA8
:1052700039D10A440899D3F818B0049B31445046F8
:1052800012B209B2D847079B09F101095B080793DD
:105290000B9B4FFA89F9013B13F0FF030B93DCD111
:1052A0000A9B08F10108013B13F0FF034FFA88F84D
:1052B0000A93BDD1049BBB420DD0012DDAF800301A
:1052C00034D1012C32D1711D00971C6A504608233D
:1052D000039A09B2A0475046DAF80030DB6A13B0EF
:1052E000BDE8F04F184702FB0412049901910D9993
:1052F00050460091D3F81CB009990C9B12B2D847C4
:10530000C1E7049ABA42BED0012D06991FFA89F26C
:1053100008D1012C06D10A440899D3F818B03144B9
:105320003B46ACE702FB04120197E0E705EB850280
:10533000E400B11801970094DC6950462B46039AAB
:1053400009B2A047C7E70027137A5168F61A126816
:10535000F6B20C9231F8362001EBC60306929A7829
:1053600093F905600892DA7893F90630B946099303
:1053700045EA0403012B98BF4FF0000BB8460368C1
:105380000D925B698ABF0796CDF81CB0DDF824B09A
:105390009847BDF814300A93334411930D9B9845F8
:1053A00099D2BDF80C3000260593059A08EB0B0343
:1053B00003FB04232AB21BB20F9222B20B9310926A
:1053C0003B4629E05A1CD2B25B070E9207D1069BDE
:1053D00006990C9A01339BB212F80190069319F0CA
:1053E000800F12D0012DDAF800301FD1012C1DD111
:1053F0000999059A9B690A441199424471189C467F
:105400005046049B12B209B2E0474FEA49090136FF
:105410000E9B5FFA89F9F6B2089A9642D2D31744E6
:1054200008F10108FFB25FFA88F8B7E7079A50461B
:1054300091190A9A01FB0521049A09B20192109A66
:105440000092DB690B9A9C460F9BE047DDE713B0A7
:10545000BDE8F08FF0750008F0B5026A04460B460F
:1054600085B0002A34D10A2908D1438A0282427EBB
:1054700003EBC2036382012005B0F0BD0D29FAD011
:10548000E17E007E657E71B10626B4F9101006FB40
:105490000011B4F90C60B142C1BFB4F912102282FC
:1054A00001EBC5026282CDE90205E28A2046019243
:1054B000A28A0092B4F91220B4F91010FFF776FE18
:1054C000237E228A03EB430302EB43032382D2E7CA
:1054D0000A2907D100230382417E127B438A01FB04
:1054E0000233C7E70D29C6D0117A8B42C3D3907A15
:1054F0009842C0D35568591AC9B205EBC105A978BD
:1055000029B3E87818B3E07E267E677E90B195F9DE
:1055100005000844B4F9101006FB0011B4F90C00A2
:10552000814207DD00202082B4F91210127B02FBB9
:1055300007126282CDE90267E28A20460192A28ABE
:105540000092B4F91220B4F91010FFF72FFE297958
:10555000227E238A01FB0233B8E7012938BF0121EB
:10556000017641767047002910B550DBB0F90C4048
:105570008C424CDD002A4ADBB0F90E40944246DDF5
:10558000847E022C22D0032C29D0012C04D1048942
:10559000A41A013C0A4621B2012B26D0022B37D097
:1055A000002B34D11346002AB0F90840B8BFD31DF0
:1055B00043F3CF0304FB03130121C06A02F0070287
:1055C0009140C25C22EA0102C25420E00489013CFD
:1055D000611A448909B2A21A013A12B2DCE744897D
:1055E000013C641A114622B2D6E71346002AB0F9EC
:1055F0000840B8BFD31D43F3CF0304FB0313C16AB4
:1056000002F0070001228240C85C0243CA5410BD68
:105610001346002AB0F90840B8BFD31D43F3CF03A7
:1056200004FB03110123C06A02F007029340425CAD
:1056300053404354EBE7000038B504461D46FFF7DE
:1056400053FD104B104A236000239D4208BF1546AE
:105650006362C4E90A53FF2384F8333084F8363098
:105660009DF910304FF6FF7284F83730059BA28603
:10567000A365069B2046E365044B63660123A4F8FB
:10568000683038BDF87A00087802002000093D0033
:1056900010B50446C06A08B101F032FB204610BDC7
:1056A000826AF8B504460D469AB190F9301010465A
:1056B000FEF7B2FFA06A002103681B689847A06A42
:1056C000294603681B689847A06ABDE8F840FFF7C1
:1056D00071B8006C266D036823EA06030360606AF4
:1056E00018B1BDE8F84001F04DB90821D4E90E2306
:1056F00080201668A76C054214BF3E43BE43166067
:105700001E68E76C013946EA07061E601E68E76CF2
:105710004FEA500026EA07061E60EAD1F8BD38B508
:105720000446806A0D4678B1A16DFEF75BFFA5F1D6
:105730005A012046C9B2FFF7B3FFA06A88B1E16DF4
:10574000BDE83840FEF74EBF606A18B1D4E91912BF
:1057500001F0F6F8626C616D136823EA01031360CF
:10576000E5E7626C616D1368606A0B43136018B102
:10577000BDE8384001F005B938BDF8B50446806A87
:105780000D468F1840B394F93010FEF745FFA06A1C
:105790000021036801261B689847BD42A06A03D117
:1057A000BDE8F840FFF706B8202E0CD1FFF702F84D
:1057B00094F93010A06AFEF72FFFA06A0021036859
:1057C00001261B689847A06A15F8011B036801367B
:1057D0001B689847B6B2E0E7226C216D136823EA94
:1057E00001031360BD4200D1F8BD606A15F8011BCA
:1057F00018B1002201F0C6F8F4E70820D4E90E231E
:105800008026D2F800C0D4F848E0314214BF4CEAF8
:105810000E0C2CEA0E0CC2F800C0D3F800C0D4F86D
:105820004CE001384CEA0E0CC3F800C0D3F800C0BD
:10583000D4F84CE04FEA56062CEA0E0CC3F800C030
:10584000DFD1CFE7B0F90A300021DA1D48BF03F1FC
:105850000E02B0F90830D2105A43C06A01F03CBBC6
:105860002DE9FF411E46C36A04460F4615469DF8C2
:105870002880CBB12046FFF7E5FFB4F90A00B4F960
:105880000810202822DC20234FF0010CCDE9013C38
:105890007323203800EBD0707339009301EBD17182
:1058A000BC4B40F34F0222E0B0F90A30D81D48BF8C
:1058B00003F10E00B4F90830C010584301F018FA93
:1058C000E0620028D6D104B0BDE8F081403803B2D0
:1058D000C0F3C030C2184FF0010E4023CDE9013EA5
:1058E000522352390093AC4B01EBD1715210204638
:1058F00041F34F01FFF70EFC84F83170A76A002FC7
:105900006BD0002D67D1B4F90A30202B14BF3D2590
:105910003C2584F83050B8F1000F03D00021384600
:10592000FFF70EF8DEB194F93700002817DB0121EC
:1059300000F0DCFC012194F9370000F035FD012076
:1059400000F0ACFD002194F9370000F02DFD0A2095
:1059500000F0A4FD012194F9370000F025FDA06AB4
:10596000002800F02981A16DFEF73CFE04222046AC
:105970008A49FFF702FF618920460139C9B2FFF762
:105980008FFE874904222046FFF7F7FE94F9313055
:105990002046012B14BF14211021FFF781FE0422A1
:1059A00020468049FFF7E9FE8F237F4A84F8603064
:1059B000A368934200F0188102F50012934240F070
:1059C000088194F93130012B14BFCF239F23122576
:1059D00084F8603009E16DB29BE7012194F935004C
:1059E00000F084FC012194F9360000F07FFC94F86B
:1059F000352094F93530222A6C4D3AD855F82220BA
:105A0000C2F30313042B96BF69490C2351F82330CA
:105A100002F00F014FF0010298BF0C338A4022655B
:105A200094F836202364222A94F9363033D855F876
:105A30002230C3F30312042A96BF5D490C2251F8A9
:105A4000227003F00F014FF0010303FA01F398BF36
:105A500007F10C0263656264FA681343FB60676ACE
:105A60007FB3B8F1000F3FF45DAF384600F058FF48
:105A700058E703F0C001C02909D1C92A07D84D4A07
:105A800003F03F0352F8233055F82320B8E70C23E6
:105A90004FF40042C3E703F0C001C02907D00C2334
:105AA00063644FF4004363650023DB68FFDEC92AAB
:105AB000F5D8404A03F03F0352F8233055F823301D
:105AC000B7E7012194F9330000F010FC012194F9AB
:105AD000340000F00BFC94F8332094F93330222A80
